{"abi":[{"type":"constructor","inputs":[{"name":"_token","type":"address","internalType":"address"},{"name":"initialOwner","type":"address","internalType":"address"}],"stateMutability":"nonpayable"},{"type":"function","name":"LOCK_PERIOD","inputs":[],"outputs":[{"name":"","type":"uint256","internalType":"uint256"}],"stateMutability":"view"},{"type":"function","name":"MIN_STAKE","inputs":[],"outputs":[{"name":"","type":"uint256","internalType":"uint256"}],"stateMutability":"view"},{"type":"function","name":"authorizedCaller","inputs":[],"outputs":[{"name":"","type":"address","internalType":"address"}],"stateMutability":"view"},{"type":"function","name":"getReputation","inputs":[{"name":"user","type":"address","internalType":"address"}],"outputs":[{"name":"","type":"uint256","internalType":"uint256"}],"stateMutability":"view"},{"type":"function","name":"getStake","inputs":[{"name":"user","type":"address","internalType":"address"}],"outputs":[{"name":"","type":"uint256","internalType":"uint256"}],"stateMutability":"view"},{"type":"function","name":"increaseReputation","inputs":[{"name":"user","type":"address","internalType":"address"},{"name":"points","type":"uint256","internalType":"uint256"}],"outputs":[],"stateMutability":"nonpayable"},{"type":"function","name":"owner","inputs":[],"outputs":[{"name":"","type":"address","internalType":"address"}],"stateMutability":"view"},{"type":"function","name":"renounceOwnership","inputs":[],"outputs":[],"stateMutability":"nonpayable"},{"type":"function","name":"reputation","inputs":[{"name":"","type":"address","internalType":"address"}],"outputs":[{"name":"","type":"uint256","internalType":"uint256"}],"stateMutability":"view"},{"type":"function","name":"setAuthorizedCaller","inputs":[{"name":"_authorizedCaller","type":"address","internalType":"address"}],"outputs":[],"stateMutability":"nonpayable"},{"type":"function","name":"slash","inputs":[{"name":"user","type":"address","internalType":"address"},{"name":"amount","type":"uint256","internalType":"uint256"}],"outputs":[],"stateMutability":"nonpayable"},{"type":"function","name":"stake","inputs":[{"name":"amount","type":"uint256","internalType":"uint256"}],"outputs":[],"stateMutability":"nonpayable"},{"type":"function","name":"stakes","inputs":[{"name":"","type":"address","internalType":"address"}],"outputs":[{"name":"amount","type":"uint256","internalType":"uint256"},{"name":"lockedUntil","type":"uint256","internalType":"uint256"}],"stateMutability":"view"},{"type":"function","name":"token","inputs":[],"outputs":[{"name":"","type":"address","internalType":"contract IERC20"}],"stateMutability":"view"},{"type":"function","name":"transferOwnership","inputs":[{"name":"newOwner","type":"address","internalType":"address"}],"outputs":[],"stateMutability":"nonpayable"},{"type":"function","name":"unstake","inputs":[],"outputs":[],"stateMutability":"nonpayable"},{"type":"event","name":"OwnershipTransferred","inputs":[{"name":"previousOwner","type":"address","indexed":true,"internalType":"address"},{"name":"newOwner","type":"address","indexed":true,"internalType":"address"}],"anonymous":false},{"type":"event","name":"ReputationUpdated","inputs":[{"name":"user","type":"address","indexed":true,"internalType":"address"},{"name":"newScore","type":"uint256","indexed":false,"internalType":"uint256"}],"anonymous":false},{"type":"event","name":"Slashed","inputs":[{"name":"user","type":"address","indexed":true,"internalType":"address"},{"name":"amount","type":"uint256","indexed":false,"internalType":"uint256"}],"anonymous":false},{"type":"event","name":"Staked","inputs":[{"name":"user","type":"address","indexed":true,"internalType":"address"},{"name":"amount","type":"uint256","indexed":false,"internalType":"uint256"}],"anonymous":false},{"type":"event","name":"Unstaked","inputs":[{"name":"user","type":"address","indexed":true,"internalType":"address"},{"name":"amount","type":"uint256","indexed":false,"internalType":"uint256"}],"anonymous":false},{"type":"error","name":"OwnableInvalidOwner","inputs":[{"name":"owner","type":"address","internalType":"address"}]},{"type":"error","name":"OwnableUnauthorizedAccount","inputs":[{"name":"account","type":"address","internalType":"address"}]}],"bytecode":{"object":"0x60a060405234801561001057600080fd5b50604051610d4b380380610d4b83398101604081905261002f916100e6565b806001600160a01b03811661005e57604051631e4fbdf760e01b81526000600482015260240160405180910390fd5b6100678161007a565b50506001600160a01b0316608052610119565b600080546001600160a01b038381166001600160a01b0319831681178455604051919092169283917f8be0079c531659141344cd1fd0a4f28419497f9722a3daafe3b4186f6b6457e09190a35050565b80516001600160a01b03811681146100e157600080fd5b919050565b600080604083850312156100f957600080fd5b610102836100ca565b9150610110602084016100ca565b90509250929050565b608051610c026101496000396000818161028e0152818161040801528181610643015261081f0152610c026000f3fe608060405234801561001057600080fd5b50600436106101005760003560e01c80639c89a0e211610097578063cf8fbec911610066578063cf8fbec914610250578063ded86d6814610263578063f2fde38b14610276578063fc0c546a1461028957600080fd5b80639c89a0e2146101e4578063a694fc3a1461020d578063b9f7945114610220578063cb1c2b5c1461024057600080fd5b8063715018a6116100d3578063715018a61461017b5780637a766460146101835780638da5cb5b146101ac57806397dc97cb146101d157600080fd5b806302fb4d851461010557806316934fc41461011a5780631820cabb1461015b5780632def662014610173575b600080fd5b610118610113366004610ada565b6102b0565b005b610141610128366004610b04565b6001602081905260009182526040909120805491015482565b604080519283526020830191909152015b60405180910390f35b61016562093a8081565b604051908152602001610152565b610118610561565b610118610707565b610165610191366004610b04565b6001600160a01b031660009081526001602052604090205490565b6000546001600160a01b03165b6040516001600160a01b039091168152602001610152565b6003546101b9906001600160a01b031681565b6101656101f2366004610b04565b6001600160a01b031660009081526002602052604090205490565b61011861021b366004610b26565b61071b565b61016561022e366004610b04565b60026020526000908152604090205481565b61016568056bc75e2d6310000081565b61011861025e366004610b04565b610904565b610118610271366004610ada565b61092e565b610118610284366004610b04565b610a03565b6101b97f000000000000000000000000000000000000000000000000000000000000000081565b6000546001600160a01b03163314806102d357506003546001600160a01b031633145b6103135760405162461bcd60e51b815260206004820152600c60248201526b155b985d5d1a1bdc9a5e995960a21b60448201526064015b60405180910390fd5b6001600160a01b0382166000908152600160205260409020548111156103705760405162461bcd60e51b8152602060048201526012602482015271496e73756666696369656e74207374616b6560701b604482015260640161030a565b6001600160a01b03821660009081526001602052604081208054839290610398908490610b55565b90915550506001600160a01b038216600090815260026020526040902054600a106103c45760006103e9565b6001600160a01b0382166000908152600260205260409020546103e990600a90610b55565b6001600160a01b038084166000908152600260205260409020919091557f00000000000000000000000000000000000000000000000000000000000000001663a9059cbb61043f6000546001600160a01b031690565b6040516001600160e01b031960e084901b1681526001600160a01b039091166004820152602481018490526044016020604051808303816000875af115801561048c573d6000803e3d6000fd5b505050506040513d601f19601f820116820180604052508101906104b09190610b6e565b6104cc5760405162461bcd60e51b815260040161030a90610b90565b816001600160a01b03167f4ed05e9673c26d2ed44f7ef6a7f2942df0ee3b5e1e17db4b99f9dcd261a339cd8260405161050791815260200190565b60405180910390a26001600160a01b0382166000818152600260209081526040918290205491519182527ffc577563f1b9a0461e24abef1e1fcc0d33d3d881f20b5df6dda59de4aae2c82191015b60405180910390a25050565b3360009081526001602081815260409283902083518085019094528054808552920154908301526105bf5760405162461bcd60e51b81526020600482015260086024820152674e6f207374616b6560c01b604482015260640161030a565b80602001514210156106025760405162461bcd60e51b815260206004820152600c60248201526b14dd1a5b1b081b1bd8dad95960a21b604482015260640161030a565b336000818152600160208190526040808320838155909101919091558251905163a9059cbb60e01b8152600481019290925260248201526001600160a01b037f0000000000000000000000000000000000000000000000000000000000000000169063a9059cbb906044016020604051808303816000875af115801561068c573d6000803e3d6000fd5b505050506040513d601f19601f820116820180604052508101906106b09190610b6e565b6106cc5760405162461bcd60e51b815260040161030a90610b90565b805160405190815233907f0f5bb82176feb1b5e747e28471aa92156a04d9f3ab9f45f28e2d704232b93f75906020015b60405180910390a250565b61070f610a41565b6107196000610a6e565b565b68056bc75e2d631000008110156107645760405162461bcd60e51b815260206004820152600d60248201526c5374616b6520746f6f206c6f7760981b604482015260640161030a565b33600090815260016020526040902054156107b25760405162461bcd60e51b815260206004820152600e60248201526d105b1c9958591e481cdd185ad95960921b604482015260640161030a565b604051806040016040528082815260200162093a80426107d29190610bb9565b9052336000818152600160208181526040928390208551815594015193019290925590516323b872dd60e01b81526004810191909152306024820152604481018290526001600160a01b037f000000000000000000000000000000000000000000000000000000000000000016906323b872dd906064016020604051808303816000875af1158015610868573d6000803e3d6000fd5b505050506040513d601f19601f8201168201806040525081019061088c9190610b6e565b6108a85760405162461bcd60e51b815260040161030a90610b90565b3360009081526002602052604081205490036108d257336000908152600260205260409020606490555b60405181815233907f9e71bc8eea02a63969f509818f2dafb9254532904319f9dbda79b67bd34a5f3d906020016106fc565b61090c610a41565b600380546001600160a01b0319166001600160a01b0392909216919091179055565b6000546001600160a01b031633148061095157506003546001600160a01b031633145b61098c5760405162461bcd60e51b815260206004820152600c60248201526b155b985d5d1a1bdc9a5e995960a21b604482015260640161030a565b6001600160a01b038216600090815260026020526040812080548392906109b4908490610bb9565b90915550506001600160a01b0382166000818152600260209081526040918290205491519182527ffc577563f1b9a0461e24abef1e1fcc0d33d3d881f20b5df6dda59de4aae2c8219101610555565b610a0b610a41565b6001600160a01b038116610a3557604051631e4fbdf760e01b81526000600482015260240161030a565b610a3e81610a6e565b50565b6000546001600160a01b031633146107195760405163118cdaa760e01b815233600482015260240161030a565b600080546001600160a01b038381166001600160a01b0319831681178455604051919092169283917f8be0079c531659141344cd1fd0a4f28419497f9722a3daafe3b4186f6b6457e09190a35050565b80356001600160a01b0381168114610ad557600080fd5b919050565b60008060408385031215610aed57600080fd5b610af683610abe565b946020939093013593505050565b600060208284031215610b1657600080fd5b610b1f82610abe565b9392505050565b600060208284031215610b3857600080fd5b5035919050565b634e487b7160e01b600052601160045260246000fd5b81810381811115610b6857610b68610b3f565b92915050565b600060208284031215610b8057600080fd5b81518015158114610b1f57600080fd5b6020808252600f908201526e151c985b9cd9995c8819985a5b1959608a1b604082015260600190565b80820180821115610b6857610b68610b3f56fea26469706673582212209731c1b88ab3f4427e4dd671c0980b11fb4a8a0373dbccaeaaa78f63537ecb4764736f6c634300081c0033","linkReferences":{}},"methodIdentifiers":{"LOCK_PERIOD()":"1820cabb","MIN_STAKE()":"cb1c2b5c","authorizedCaller()":"97dc97cb","getReputation(address)":"9c89a0e2","getStake(address)":"7a766460","increaseReputation(address,uint256)":"ded86d68","owner()":"8da5cb5b","renounceOwnership()":"715018a6","reputation(address)":"b9f79451","setAuthorizedCaller(address)":"cf8fbec9","slash(address,uint256)":"02fb4d85","stake(uint256)":"a694fc3a","stakes(address)":"16934fc4","token()":"fc0c546a","transferOwnership(address)":"f2fde38b","unstake()":"2def6620"},"id":22}